S00C0000547852782E7372656382
S11300000C942A000C943F000C943F000C943F0085
S11300100C943F000C943F000C943F000C943F0060
S11300200C943F000C943F000C943F000C943F0050
S11300300C943F000C943F000C943F000C943F0040
S11300400C943F000C943F000C943F000C943F0030
S11300500C943F0011241FBECFE5D8E0DEBFCDBF16
S113006010E0A0E6B0E0EAE9F3E002C005900D92EA
S1130070A23CB107D9F70E9421010C94CB010C9446
S11300800000AA9A00C0AA980895CF93C82F6623A7
S113009011F0A89A01C0A898A998A49AA59AA69A1A
S11300A0A79AAF98AE98AD98AC98CC230CF4AF9ABD
S11300B0C6FDAE9AC5FDAD9AC4FDAC9A0E9441003E
S11300C0AF98AE98AD98AC98C3FDAF9AC2FDAE9A06
S11300D0C1FDAD9AC0FDAC9A0E944100AC9AAD9AA4
S11300E0AE9AAF9ACF910895882311F0A89A01C0CF
S11300F0A898A99AA498A598A698A798AA9A00C07F
S11301009C9B02C080E101C080E09D9980629E9921
S113011080649F998068AA9800C0AA9A00C09C999C
S113012081609D9982609E9984609F998860AA9855
S1130130089580E00E9474008823DCF388E090E056
S11301400197F1F780E00E9474000895CF93C82FBF
S11301500E94990060E08C2F0E944500CF91089581
S1130160611104C080580E94A600089580540E9422
S1130170A600089581E00E94A600089582E00E94EE
S1130180A6000895CF93C82F0E949900CA3049F45D
S1130190803410F080E001C080E480580E94A60002
S11301A004C061E08C2F0E944500CF910895CF9345
S11301B0DF93EC012196FC018081882329F00E94C1
S11301C0C20089918111FBCFDF91CF9108951F93D4
S11301D0CF93DF93182FA09AA19AA29AA49AA59AD2
S11301E0A69AA79A80E09AEF0197F1F7AD9AAC9A94
S11301F00E94410080E09EE40197F1F70E944100D3
S1130200C0E0D1E0CE010197F1F70E944100CE0198
S11302100197F1F7AC980E9441002197F1F788E229
S11302200E94A60088E00E94A6000E94BA0086E010
S11302300E94A600812F0E94A600DF91CF911F91FA
S11302400895CF93DF93CDB7DEB760970FB6F894D8
S1130250DEBF0FBECDBF1ABA82E081BB8FEF87BB72
S11302600E949D018CE00E94E7000E94BA000E9457
S1130270BE0084EB90E05C01BB2484EA90E06C0156
S1130280DD2481E890E04C01992480E690E03C0173
S11302907724C89B1AC060E080E00E94B000C601C9
S11302A00E94D700C99B04C0C3010E94B80103C0C7
S11302B0C4010E94B8012FE33DE083E021503040A7
S11302C08040E1F700C00000E4CF60E080E00E94DD
S11302D0B000C5010E94D70061E080E00E94B00038
S11302E00E94AC01892BE1F30E94B6018823B9F086
S11302F0FE0131967F0100E010E0F70181937F0158
S11303000E94AC01892BE1F30E94B6010F5F1F4FDD
S113031008BB0F30110529F08111EFCF02C000E0B6
S113032010E0E1E0F0E0EC0FFD1FE00FF11F1082A0
S1130330CE0101960E94D700ACCF1BB888E18AB9E0
S113034086E880BD10BC89E189B908958BB185FB2D
S1130350882780F990E008958BB1082E000C990B42
S1130360892F881F8827881F90E008958CB10895ED
S1130370CF93DF93FC012081222351F0EC010E94F2
S1130380A601892BE1F389918CB988818111F7CF7A
S10D0390DF91CF910895F894FFCF98
S113039A5472616E736D697474696E672066726FE4
S11303AA6D2050726F74657573202E2E2E200A0DDF
S11303BA00416E6F7468657220737472696E672087
S11303CA66726F6D2050726F74657573202E2E2EAF
S11303DA200A0D005472616E736D697474696E67D4
S11303EA2E2E2E00526563656976696E672E2E2E4F
S10503FA0000FD
S9030000FC
